:020000040800F2
:1000000080960220C1010008C94900083334000865
:10001000C7490008BD050008655E00080000000033
:1000200000000000000000000000000099590008D6
:10003000C308000800000000C55000089D590008D2
:10004000DB010008DB010008DB010008DB01000820
:10005000DB010008DB010008DB010008DB01000810
:10006000DB010008DB010008DB010008DB01000800
:10007000DB010008DB010008DB010008DB010008F0
:10008000DB010008DB010008DB010008DB010008E0
:10009000DB010008DB010008DB010008DB010008D0
:1000A000DB010008DB010008DB010008DB010008C0
:1000B000DB010008DB010008DB010008DB010008B0
:1000C000DB010008DB010008DB010008DB010008A0
:1000D000DB010008155E0008DB010008DB010008F9
:1000E000DB010008DB010008DB010008DB01000880
:1000F000DB010008DB010008DB010008DB01000870
:10010000DB010008DB010008DB010008DB0100085F
:10011000DB010008DB010008DB010008DB0100084F
:10012000DB010008C9070008DB010008DB0100084B
:10013000DB010008DB010008DB010008DB0100082F
:10014000DB010008DB010008DB010008DB0100081F
:10015000DB010008DB010008DB010008DB0100080F
:10016000DB010008DB010008DB010008DB010008FF
:10017000DB010008DB010008690600080000000040
:10018000DB010008DB010008DB010008DB010008DF
:10019000DB010008DB010008DB010008DB010008CF
:1001A000DB010008DB010008DB010008DFF80CD0F0
:1001B00000F04EF90048004701BF00088096022079
:1001C0000648804706480047FEE7FEE7FEE7FEE7F1
:1001D000FEE7FEE7FEE7FEE7FEE7FEE7495A000816
:1001E000AD0100082DE9F05F0546002092469B46D0
:1001F00088460646814640241BE02846414647463D
:10020000224600F014F953465A46C01A914110D3C1
:1002100011461846224600F0FBF82D1A67EB01083C
:100220004F4622460120002100F0F2F817EB0009AA
:100230004E41201EA4F10104DFDC484631462A4627
:100240004346BDE8F09F2DE9F0410024061B2546FA
:1002500071F1000605DA01240027D0EB070067EBF7
:100260000101161E73F1000605DA0027D2EB070222
:10027000012567EB0303FFF7B5FF86460E461746D9
:100280009C46AC4204D00025D0EB050E65EB010680
:1002900024B10020D2EB000760EB030C704631461E
:1002A0003A466346BDE8F081202A06DBCB17203AA8
:1002B00041FA02F043EAE07306E041FA02F3D0406B
:1002C000C2F1200291400843194670472DE9FE43D0
:1002D000994615468846074601AC022942D3002DAF
:1002E00040D000200290A8F101004FF0FF360090AE
:1002F00022E000FB057201FB057011464A4690475B
:10030000002805DC54F82600304444F8260013E0A9
:1003100060682A4600FB057154F8040C00FB057068
:1003200007E00B7890F800C001F801CB00F8013B22
:10033000521E002AF5D1764254F8040C61688842B6
:10034000D7DC4B462A463846FFF7C0FF54F8040C6A
:100350004B46A8EB0001401C00FB05702A46491ED5
:10036000FFF7B4FFBDE8FE8310B5431A934209D2EC
:100370008318881803E010F8011D03F8011D521EB0
:10038000F9D210BD40EA01039B0703D009E008C978
:10039000121F08C0042AFAD203E011F8013B00F84A
:1003A000013B521EF9D210BDD2B201E000F8012B80
:1003B000491EFBD270470022F6E710B513460A46E5
:1003C00004461946FFF7F0FF204610BD421C10F806
:1003D000011B0029FBD1801A704730B5044600206C
:1003E000034600E05B1C934203D2E05CCD5C401B03
:1003F000F8D030BD10B54843044605F095FD0028FF
:1004000005D00021002C02D0641E0155FAE710BD72
:10041000202A04DB203A00FA02F1002070479140C4
:10042000C2F1200320FA03F3194390407047202AB9
:1004300004DB203A21FA02F00021704721FA02F38E
:10044000D040C2F120029140084319467047000095
:10045000064C074D06E0E06840F0010394E8070011
:1004600098471034AC42F6D3FFF7A4FE84940108F9
:10047000A494010870B58D1810F8014B14F0030214
:1004800001D110F8012B231106D110F8013B03E034
:1004900010F8016B01F8016B521EF9D1ABB110F8E5
:1004A000012B04F00C048A1A0C2C03D0A2EB84124A
:1004B0009B1C08E010F8014BA2EB0422F8E712F8AD
:1004C000014B01F8014B5B1EF9D5A942D4D30020A2
:1004D00070BD000030B587B00E48016841F48071EE
:1004E0000160006800F4807001904FF40064029491
:1004F00001200390022004900590074D02A9284690
:1005000001F0F2FC00222146284601F0DDFD07B093
:1005100030BD000030380240002002402DE9F04399
:10052000DFF8888098F8001000291ED0204A516812
:1005300000291AD11F4900260B78B3EB400F00D9D0
:100540000E700F784FF400631B4832241D044FF0E7
:100550001E0C072F25D2DFE807F024040A10151B14
:1005600020008361546002200870BDE8F08385613B
:10057000C2F804C003200870F7E7836154600420C8
:100580000870F2E78561C2F804C005200870ECE746
:100590008361546006200870E7E7856107200870D2
:1005A000E3E70120087088F80060DEE71100002012
:1005B0006C150020EF14002000200240FEE710B56B
:1005C000806B816B496D022902D0012180F82510D2
:1005D00000F0B0FA10BD10B5846BA26A806B002ADF
:1005E000806B01681FD00A6802F40022A36ADB074F
:1005F0000BD152B1C968E26A01EBC201002200F0DE
:1006000035FDA06A401EA0621DE00A6812031AD4DC
:100610000969E26A01EBC201012200F027FDA06A2C
:10062000401EA0620FE00868000302D5606BC8603E
:1006300009E00868000306D4606BE26A00EB820000
:100640000861206BA062A06A216B88420BD12068F0
:10065000C16841F00101C16020680068800702D5CF
:10066000012084F8250010BD014800F065BA0000A3
:100670003C1A002070B586B000252848016841F07A
:1006800001010160016801F001010091016841F080
:1006900001010160006800F0010000901F48143063
:1006A000016841F010010160006800F01000009046
:1006B0004FF400700190022002900120039003206B
:1006C000049007240594164E01A9304601F00CFC55
:1006D00031150191059401A9304601F005FC124C39
:1006E000104820604FF4E1306060A560E56025614E
:1006F000A5610C206061204602F002FE0022114636
:10070000252002F0B5F8252002F0A7F82068C1687E
:1007100041F02001C16006B070BD000030380240D9
:100720000000024000100140DC170020F0B5059EDB
:100730000468656C46EA034305F040451D43656463
:100740000368DA634268B2F5403F02D00068C160D6
:10075000F0BD01F07F4501F47F0701F47F46CCB284
:1007600001F47F4201F47F0C836842EA0C02BBB1C2
:10077000012B18D001F47F02D20CC1F3C401022B6B
:1007800013D0032B17D0290F3A0D330B24091B016B
:1007900043EA022242EA0132224300688263F0BD4A
:1007A0002A432243F9E72243F7E7B30A5B0143EA0E
:1007B000C2220A43F1E7EB0FF40A640144EA822201
:1007C00042EAC3320A43E8E7014801F0EDB900000C
:1007D0007C1A00200168CAB2103A1823B2FBF3F267
:1007E000064B9B5CC3656FF30901032A02D9091DFF
:1007F000816500E08165806D704700001C53010831
:1008000010B5014600208A6A8B694FF0C074002B36
:100810000ED0B3F5005F1AD062B3012A2AD0022AA3
:1008200028D0032A03D1C96AC90100D5012010BD0F
:100830001AB1012A06D0022AF9D1C96AC901F6D52E
:10084000012010BDC96AA142FBD1012010BD52B1E7
:10085000012A0AD0022A06D0032AF7D1C96AA14286
:10086000F4D1012010BD012010BDC96AC901FBD51A
:10087000012010BD012010BD10B5046863608368BD
:10088000402B04D0036899600068C26010BD036803
:100890009A600068C16010BD30B50468256825F411
:1008A00080252560046863608368402B04D003685A
:1008B00099600068C26030BD03689A600068C160DA
:1008C00030BD70472DE9F74F83B006460F46DFF87D
:1008D000FCA0DFF8FCB0DAF8040000EB40000BEB02
:1008E00080008068B0F806908588E81D029020F0AE
:1008F0000700401BC0B20090A9F1030814E00024D7
:100900000CE0DAF80400394600EB40000BEB800005
:100910004268301980B203F0A1F9641CAC42F0D3F4
:100920007F1CBFB208F10108C845E8D34FF00008AA
:10093000A9F10309CDF8049042E00298C108059896
:1009400001FB080001290BD002290CD00178427864
:100950000904807841EA022949EA0009002429E0D3
:1009600090F80090FAE74178007841EA0029F5E72D
:100970000098291B0144491E0120884010EA090FF4
:100980000BD0DAF80400394600EB40005BF8202079
:10099000301980B203F062F90BE0DAF8040039464E
:1009A00000EB40000BEB80004268301980B203F08E
:1009B00055F9641CAC42DBD37F1CBFB208F10108BF
:1009C00001988045B9D306B0BDE8F08F240000201F
:1009D000D019002030B5D1E901231A43D1E90334FD
:1009E00023431A434B690D681A438B691A43D1E9B3
:1009F0000734496A012D08D005686FF30E051A43C4
:100A000022430A432A4302600BE0056825F4F845B7
:100A1000234329430B4341686FF30E010A430360EC
:100A20004260002030BD426942EA4101416100203C
:100A30007047F8B506461446D1E9000210438A68AB
:100A4000C968521E520142EA4121084300900098B1
:100A5000306101F041FB054609E0601C07D024B17C
:100A600001F03AFB401BA04201D90320F8BDB06958
:100A70008006F2D40020F8BDF0B50C684B68641E07
:100A80005B1E44EA03148B684D695B1E44EA03262F
:100A9000CB680C6989695B1E641E6D1E491E012AA4
:100AA0000DD0826802F0704246EA033343EA044301
:100AB00043EA055343EA01611143816010E0826813
:100AC000084F3A401B0343EA05531343C26802F040
:100AD000704246EA044444EA016111438360C16004
:100AE0000020F0BDFF0F0FFF70B505460C46104EFD
:100AF0003078002803D104F0DDFE01203070220A96
:100B0000E1B2A13AC2EB021000EB421001EB40014E
:100B1000A13901EBC1008101C81701EB5070C11070
:100B2000482201F5AA01284604F09EFE002070BD6F
:100B300024000020704770472DE9F04104462068EA
:100B40000569224F69074FF004060BD54661E06B3B
:100B500040F00200E06384F82560A06B0765A06B9D
:100B600001F010F8A8070DD5216802204861E06B5C
:100B700040F00100E06384F82560A06B0765A06B7E
:100B800001F000F8E80605D52168102048612046EC
:100B900000F060F8280705D5216808204861204644
:100BA00000F008F9E8070FD020680168890703D52D
:100BB000C16821F01E01C1602068C16821F00101F7
:100BC000C1602046FFF7B7FFBDE8F081BF05000810
:100BD00010B50446002C03D094F8250010B104E0B1
:100BE000012010BD204600F036F8022084F82500D0
:100BF0002068016840F6F87291430160616860699D
:100C00000143D4E9030210430143A0680143A069F2
:100C10000143206A01432068026811430160606853
:100C200010280BD1207F617FE27F40EA0120A17F65
:100C3000090441EA02610843216888612068C168AB
:100C400041F01E01C1600020E063012084F825000E
:100C5000002010BD7047704790F82410012907D07C
:100C6000012180F8241090F82510052902D009E010
:100C700002207047022180F8251001680A6842F0BE
:100C800001020A60002180F8241000207047000053
:100C9000F8B5044694F82400012827D0012684F8EA
:100CA0002460022084F825002068056845F480450A
:100CB00005602068056825F0020505602068056864
:100CC0000D430560A16B1E48C863A56B1D49E9640F
:100CD000A16B00250D65A562256331048B4207D207
:100CE0002168A06B283101F0B1F81FE00220F8BDA7
:100CF000A76B7864A662E362626305E0E06A40087D
:100D0000E062A06A4000A062E06A8842F6D2A06A6F
:100D1000801EA062A06A2063E06A02EB8003E06AA2
:100D200000902168A06B283100F0A8F920680168C4
:100D300041F00101016084F824500020F8BD00005A
:100D4000D7050008BF05000818B519490E22096823
:100D5000B1FBF2F10091002390F82410012907D093
:100D6000012480F8244090F82510022902D019E0CF
:100D7000022018BD052180F8251001680A6822F0BC
:100D800001020A6000994A1E009207D2C16B41F02D
:100D90002001C16380F82540032303E0016809684E
:100DA000C907EFD1002180F82410184618BD0000B3
:100DB0000000002010B504460F490A78521C0A7042
:100DC0000E48FFF7C1FF2068016821F480410160EF
:100DD0004FF050444FF4F0724FF4487120460AF03F
:100DE0005BFD03F077FB0548FFF736FF2046BDE8C3
:100DF0001040034903F000BE100000203C1A002000
:100E000000EE020070B500EB01121832436890F852
:100E10003830012B20D0012580F83850022380F88B
:100E2000393054680A2C19D0092C17D01389167B35
:100E30001B0443EA066323431B4CB9B10168CE6926
:100E400026401E43CE6103681168196151680A2962
:100E50001FD009291DD021E0022070BDD36816895A
:100E600003F07F4343EA06432343E5E701684E6A04
:100E700026401E434E6203681168996151680A2931
:100E800001D009290AD1D168026821F07F4191621D
:100E900004E0D168026821F07F411162383045706A
:100EA00000210170002070BDF0FFFC0070B5044609
:100EB000002C04D094F83900002510B106E0012080
:100EC00070BD84F83850204600F01EF8022084F8E7
:100ED000390020680168626821F4403111430160E3
:100EE0002068416BA26821F007011143416320682B
:100EF000016CE2686FF30D0111430164E5630120A9
:100F000084F83900002070BD70472DE9F84304468D
:100F10000D4600260096206800684FF00407C007C1
:100F20004FF0030838D001F0D7F8814630E0406830
:100F30000090009810F0210F17D00098800603D57C
:100F4000E06B40F00200E0630098C00703D0E06B64
:100F500040F00100E06321682120886084F8397046
:100F600084F838600120BDE8F883681C10D02DB1EA
:100F700001F0B2F8A0EB0900A84209D9E06B40F0FB
:100F80002000E06384F8398084F838600320EAE7C1
:100F9000206841688907CAD52068C169890602D4DA
:100FA000406A80063ED501F097F8814636E04068F9
:100FB0000090009810F0290F1DD00098000703D56D
:100FC000E06B40F00400E0630098800603D5E06B1E
:100FD00040F00200E0630098C00703D0E06B40F0EF
:100FE0000100E06321682920886084F8397084F862
:100FF00038600120B7E7681C10D02DB101F06CF803
:10100000A0EB0900A84209D9E06B40F02000E063A2
:1010100084F8398084F838600320A4E720684168A8
:10102000C906C4D5216812208860012084F83900DF
:1010300084F83860002096E738B50446049894F8A0
:101040003850012D10D0012584F83850022584F83D
:10105000395000902046FFF769FB2068016841F095
:1010600001010160002038BD022038BD0068002A5F
:1010700002D0016100207047C160FBE72DE9F84F05
:1010800004460A9E00200090A0684FF480758028D6
:1010900018D0E06BC8B1606CB8B1E06CA8B194F83E
:1010A0003400012815D0012084F8340094F83570FC
:1010B0000020012F0FD084F8340002200090009807
:1010C000BDE8F88F65650120FAE7402060650120E2
:1010D000F6E70220F4E7022784F83570606520689F
:1010E000076847F48027076020680361334620467D
:1010F000FFF7C2FBF94AFA4BF84EF94FDFF8DCE391
:10110000DFF8D8C3DFF8D883DFF8D0932168F4483C
:10111000483A6033183618374FF4006A4FF4001B12
:10112000ACF1300C08F1780809F13009714542D969
:10113000814202D14FF0200A38E0914202D14FF0B3
:10114000200A33E0994202D14FF0200A2EE0B1424A
:1011500002D14FF0200A29E0B94227D0614525D0BD
:10116000414523D0494521D0DFF874A30AF1300A64
:10117000514501D1DA4619E0DFF860A3AAF1180A57
:10118000514501D1DA4611E0DFF854A30AF1900A83
:10119000514501D1DA4609E0DFF840A30AF1480AD7
:1011A000514501D1DA4601E04FF0006ACB494C3994
:1011B000C1F800A0D3E0DFF828E30EF1A80E7145D6
:1011C00042D9814202D14FF0200A38E0914202D147
:1011D0004FF0200A33E0994202D14FF0200A2EE06E
:1011E000B14202D14FF0200A29E0B94227D061452F
:1011F00025D0414523D0494521D0DFF8E4A20AF1AA
:10120000300A514501D1DA4619E0DFF8D0A2AAF13F
:10121000180A514501D1DA4611E0DFF8C4A20AF1FB
:10122000900A514501D1DA4609E0DFF8B0A20AF18F
:10123000480A514501D1DA4601E04FF0006AA7495A
:101240005039C1F800A08AE0DFF894E20EF1480EB0
:10125000714542D9814202D14FF0200A38E09142D3
:1012600002D14FF0200A33E0994202D14FF0200A18
:101270002EE0B14202D14FF0200A29E0B94227D036
:10128000614525D0414523D0494521D0DFF850A202
:101290000AF1300A514501D1DA4619E0DFF83CA2E3
:1012A000AAF1180A514501D1DA4611E0DFF830A25F
:1012B0000AF1900A514501D1DA4609E0DFF81CA293
:1012C0000AF1480A514501D1DA4601E04FF0006ABF
:1012D00083491039C1F80CA041E0814202D14FF09E
:1012E000200A38E0914202D14FF0200A33E09942BF
:1012F00002D14FF0200A2EE0B14202D14FF0200A75
:1013000029E0B94227D0614525D0414523D0494540
:1013100021D0DFF8CCA10AF1300A514501D1DA46DB
:1013200019E0DFF8B8A1AAF1180A514501D1DA464F
:1013300011E0DFF8ACA10AF1900A514501D1DA467B
:1013400009E0DFF898A10AF1480A514501D1DA46CF
:1013500001E04FF0006A62491039C1F808A0DFF8D7
:101360007CE121684FF4806A4FF4801B714542D9BB
:10137000814202D14FF0100A38E0914202D14FF081
:10138000100A33E0994202D14FF0100A2EE0B14228
:1013900002D14FF0100A29E0B94227D0614525D08B
:1013A000414523D0494521D0DFF834A10AF1300A64
:1013B000514501D1DA4619E0DFF820A1AAF1180A57
:1013C000514501D1DA4611E0DFF814A10AF1900A83
:1013D000514501D1DA4609E0DFF800A10AF1480AD7
:1013E000514501D1DA4601E04FF0806A3B494C3962
:1013F000C1F800A0CFE0DFF8E8E00EF1A80E7145DB
:1014000042D9814202D14FF0100A38E0914202D114
:101410004FF0100A33E0994202D14FF0100A2EE04B
:10142000B14202D14FF0100A29E0B94227D06145FC
:1014300025D0414523D0494521D0DFF8A4A00AF1A9
:10144000300A514501D1DA4619E0DFF890A0AAF13F
:10145000180A514501D1DA4611E0DFF884A00AF1FB
:10146000900A514501D1DA4609E0DFF870A00AF18F
:10147000480A514501D1DA4601E04FF0806A174928
:101480005039C1F800A086E0DFF854E00EF1480EB4
:10149000714542D9814202D14FF0100A38E09142A1
:1014A00002D14FF0100A33E0994202D14FF0100AF6
:1014B0002EE0B14202D14FF0100A29E0B94227D004
:1014C000614525D0414523D0494521D0DFF810A002
:1014D0000AF1300A514505D1DA4619E05864024054
:1014E00010600240DFF808A4514501D1DA460FE050
:1014F000DFF800A4514501D1DA4609E0DFF8F0A396
:101500000AF1600A514501D1DA4601E04FF0806AE4
:10151000F849A039C1F80CA03DE0814202D14FF05A
:10152000100A34E0914202D14FF0100A2FE09942A4
:1015300002D14FF0100A2AE0B14202D14FF0100A56
:1015400025E0B94223D0614521D041451FD049450E
:101550001DD0DFF8A0A3AAF1600A514501D1DA46F7
:1015600015E0DFF88CA3514501D1DA460FE0DFF832
:1015700084A3514501D1DA4609E0DFF874A30AF1EA
:10158000600A514501D1DA4601E04FF0806AD9493D
:10159000A039C1F808A0DFF858E321680EF1180E51
:1015A0004FF4007A4FF4002B71453ED9814202D1AD
:1015B0004FF0080A34E0914202D14FF0080A2FE0C0
:1015C000994202D14FF0080A2AE0B14202D14FF00D
:1015D000080A25E0B94223D0614521D041451FD0FA
:1015E00049451DD0DFF80CA3AAF1600A514501D18D
:1015F000DA4615E0DFF8F8A2514501D1DA460FE0EE
:10160000DFF8F0A2514501D1DA4609E0DFF8E0A2A7
:101610000AF1600A514501D1DA4601E04FF0007A43
:10162000B3493439C1F800A0C7E0DFF8C8E20EF1D1
:10163000180E71453ED9814202D14FF0080A34E0BC
:10164000914202D14FF0080A2FE0994202D14FF0A7
:10165000080A2AE0B14202D14FF0080A25E0B94257
:1016600023D0614521D041451FD049451DD0DFF829
:1016700084A2AAF1600A514501D1DA4615E0DFF8EB
:1016800070A2514501D1DA460FE0DFF868A251455A
:1016900001D1DA4609E0DFF858A20AF1600A5145A3
:1016A00001D1DA4601E04FF0007A91493839C1F8AA
:1016B00000A082E0DFF83CE2AEF1480E71453ED971
:1016C000814202D14FF0080A34E0914202D14FF03A
:1016D000080A2FE0994202D14FF0080A2AE0B142ED
:1016E00002D14FF0080A25E0B94223D0614521D04C
:1016F00041451FD049451DD0DFF8F8A1AAF1600A85
:10170000514501D1DA4615E0DFF8E4A1514501D198
:10171000DA460FE0DFF8DCA1514501D1DA4609E0F5
:10172000DFF8CCA10AF1600A514501D1DA4601E0A7
:101730004FF0007A6F49A039C1F80CA03DE081421A
:1017400002D14FF0080A34E0914202D14FF0080A6A
:101750002FE0994202D14FF0080A2AE0B14202D1AB
:101760004FF0080A25E0B94223D0614521D0414518
:101770001FD049451DD0DFF87CA1AAF1600A514570
:1017800001D1DA4615E0DFF868A1514501D1DA460A
:101790000FE0DFF860A1514501D1DA4609E0DFF83A
:1017A00050A10AF1600A514501D1DA4601E04FF03B
:1017B000007A5049A039C1F808A0DFF834A12168A7
:1017C0000AF1180A4FF4802B514533D9814201D1D7
:1017D00004252BE0914201D1042527E0994201D153
:1017E000042523E0B14201D104251FE0B9421DD0F8
:1017F00061451BD0414519D0494517D03D4D603D4D
:10180000A94201D15D4611E0394DA94201D15D46A1
:101810000CE0384DA94201D15D4607E0344D6035FA
:10182000A94201D15D4601E04FF08075304934395D
:101830000D60AAE0DFF8BCE00EF1180E714533D957
:10184000814201D104252BE0914201D1042527E0FA
:10185000994201D1042523E0B14201D104251FE0C2
:10186000B9421DD061451BD0414519D0494517D01B
:10187000204D603DA94201D15D4611E01C4DA942B9
:1018800001D15D460CE01B4DA94201D15D4607E048
:10189000174D6035A94201D15D4601E04FF08075DA
:1018A000134938390D6070E0DFF848E0AEF1480EBA
:1018B000714537D9814201D104252FE0914201D1F0
:1018C00004252BE0994201D1042527E0B14201D142
:1018D000042523E0B94221D061451FD041451DD0E8
:1018E00049451BD0034D603DA94205D15D4615E039
:1018F00040640240A0600240A04DA94201D15D4673
:101900000CE09F4DA94201D15D4607E09B4D60353B
:10191000A94201D15D4601E04FF080759849A03998
:10192000CD6032E0814201D104252BE0914201D10A
:10193000042527E0994201D1042523E0B14201D1D9
:1019400004251FE0B9421DD061451BD0414519D087
:10195000494517D08A4D603DA94201D15D4611E04D
:10196000864DA94201D15D460CE0854DA94201D1C9
:101970005D4607E0814D6035A94201D15D4601E039
:101980004FF080757E49A0398D6021684FF4803515
:101990004FF4800B514532D9814201D101252AE013
:1019A000914201D1012526E0994201D1012522E091
:1019B000B14201D101251EE0B94201D140251AE012
:1019C000614501D1402516E0414501D1402512E095
:1019D000494501D140250EE06948603881420AD06E
:1019E0006648814207D06648814204D0634860302F
:1019F000814200D05D46614834380560A3E0DFF8DD
:101A000080A10AF1180A514532D9814201D101253C
:101A10002AE0914201D1012526E0994201D1012518
:101A200022E0B14201D101251EE0B94201D1402599
:101A30001AE0614501D1402516E0414501D140251C
:101A400012E0494501D140250EE04D486038814201
:101A50000AD04A48814207D04948814204D04748C9
:101A60006030814200D05D464448383805606AE005
:101A7000DFF80CA1AAF1480A514532D9814201D1BF
:101A800001252AE0914201D1012526E0994201D1A8
:101A9000012522E0B14201D101251EE0B94201D168
:101AA00040251AE0614501D1402516E0414501D1AC
:101AB000402512E0494501D140250EE0304860380C
:101AC00081420AD02D48814207D02D48814204D05E
:101AD0002A486030814200D05D462948A038C56060
:101AE00031E0814201D101252AE0914201D1012555
:101AF00026E0994201D1012522E0B14201D1012520
:101B00001EE0B94201D140251AE0614501D14025CE
:101B100016E0414501D1402512E0494501D140255B
:101B20000EE01748603881420AD01448814207D03D
:101B30001348814204D011486030814200D05D4694
:101B40000F48A03885602068016841F016010160E7
:101B50002068416941F080014161206C08B9A06CA6
:101B600020B12068016841F0080101602068016827
:101B700041F001010160FFF7A2BA00004064024099
:101B8000A060024090F83510022903D08021416501
:101B900001207047052180F835100068016821F0A8
:101BA00001010160002070472DE9F84304464FF021
:101BB0000009CDF800906F484FF416510068B0FB53
:101BC000F1F7A56D2E6894F85C00082202FA00F186
:101BD000314210D02068016849070CD5016821F016
:101BE0000401016094F85C0002FA00F1A960606DE4
:101BF00040F00100606594F85C104FF0010808FAAD
:101C000001F0304208D021684969090604D5A8606E
:101C1000606D40F00200606594F85C10042088401C
:101C2000304208D021680968890704D5A860606D32
:101C300040F00400606594F85C1010208840304249
:101C400020D02168096809071CD5A86020680168B0
:101C500049030CD50068000304D4216C91B12046DF
:101C600088470FE0A16C69B1204688470AE0016807
:101C7000C90503D4016821F008010160216C09B194
:101C80002046884794F85C102020884030424CD091
:101C900021680968C90648D5A86094F83500052868
:101CA0000BD020680168490330D50068000328D4B0
:101CB000616C51B32046884737E02068016821F005
:101CC000160101602068416921F080014161206CAA
:101CD00008B9A06C20B12068016821F008010160FA
:101CE00094F85C103F208840A86084F8349084F811
:101CF0003580216D00293BD001B02046BDE8F0437E
:101D00000847E16B09B1204688470EE00168C90524
:101D100007D4016821F01001016084F8349084F840
:101D20003580E16B09B120468847606D00281FD0DF
:101D3000606DC00714D0052084F835002068016864
:101D400021F0010101600098401C0090B84203D8C6
:101D500020680068C007F6D184F8349084F8358094
:101D6000E16C002904D001B02046BDE8F0430847EB
:101D7000BDE8F883000000202DE9F041044600F0A2
:101D8000ABF905465CB1002684F83460022084F883
:101D900035002068016821F0010101600DE001209B
:101DA000BDE8F08100F098F9401B052805D92020F6
:101DB0006065032084F83500F2E720680068C007FA
:101DC000F0D121680A6820480240D4E90103184391
:101DD000D4E903352B43184363691843A3691843B7
:101DE000E3691843236A18431043626A042A03D143
:101DF000D4E90B231A43104308602068406920F09F
:101E00000700656A29460543012704290DD1A06A08
:101E10000543E06A48B12046FEF7F2FC28B14020B5
:101E2000606584F835700120BAE720684561204676
:101E3000FEF7D0FC94F85C203F21914081606665FC
:101E400084F835700020ABE73F8010F02DE9F041B9
:101E500004460025A66D94F8340001280DD0012019
:101E600084F8340094F835700020012F07D084F8EE
:101E7000340002252846BDE8F0810220FBE7022756
:101E800084F8357060652046FEF706FD94F85C1016
:101E90003F208840B0602068016841F01601016071
:101EA0002068416941F080014161206C20B12068C7
:101EB000016841F0080101602068016841F00101FA
:101EC0000160D7E770B5044600F006F90546601CCE
:101ED00002D004480078044400F0FEF8401BA04201
:101EE000FAD370BD040000202DE9F84F0022DFF87E
:101EF000A491DFF8A08109F108094FF0010E4FF01D
:101F00000F0C09F1040A0EFA02F60B683340B342D3
:101F100071D14C68022C01D0122C11D1D40800EBE5
:101F200084073D6A5407E40E0CFA04FB25EA0B050E
:101F3000D1F810B00BFA04FB4BEA050BC7F820B040
:101F4000076854000325A540AF4391F804B00BF097
:101F5000030B0BFA04FB4BEA070BC0F800B04F6809
:101F6000012F05D0022F03D0112F01D0122F11D134
:101F70008768AF43D1F80CB00BFA04FB4BEA070BB0
:101F8000C0F808B04768B7430E79C6F3001696400C
:101F90003E434660C668AE438D68A5403543C56084
:101FA0004C68E4006FD53C4C256845F480452560BD
:101FB000246804F480440094384C22F0030525443E
:101FC000D5F808789407260F0CFA06F4A743344C8A
:101FD000A04201D100242EE0324CA04201D10124C4
:101FE00029E0314CA04201D1022424E02F4CA04230
:101FF00002D103241FE046E02D4CA04201D104246D
:1020000019E02C4CA04201D1052414E02A4CA04236
:1020100001D106240FE0294CA04201D107240AE097
:10202000274CA04201D1082405E0264CA04201D152
:10203000092400E00A24B4403C43C5F80848D8F815
:1020400000409C434D68ED0300D51C43C8F8004098
:10205000104D2D1D2C689C434E68B60300D51C43C3
:102060002C60D9F800409C434D68ED0200D51C431C
:10207000C9F80040DAF800409C434D68AD0200D535
:102080001C43CAF80040521C102AFFF43CAFBDE8C4
:10209000F88F0000003C014044380240003001400D
:1020A000000002400004024000080240000C024010
:1020B000001002400014024000180240001C0240C0
:1020C0000020024000240240002A01D081617047B4
:1020D0000904816170470000014880687047000072
:1020E0000400002090F83D20202A01D002207047F3
:1020F000242280F83D200268136823F00103136056
:102100000268536A23F0100353620268536A0B4358
:10211000536201680A6842F001020A60202180F8D7
:102120003D100020704710B50446002C12D024202A
:1021300084F83D002068016821F00101016020461B
:1021400000F098FA00203034206160732060A073A2
:10215000207310BD012010BD90F83D0070470000B5
:1021600070B50446002C04D094F83D00002510B151
:1021700006E0012070BD84F83C50204600F07BFA58
:10218000242084F83D002068016821F001010160ED
:1021900000F094FD3349B0FBF1F122685160324AFE
:1021A0006368934201D8491C07E04FF49673594382
:1021B0004FF47A73B1FBF3F1491C2368196261682B
:1021C00091420BD84900B0FBF1F2C2F30B02042A92
:1021D00001D2042019E0B0FBF1F016E0A2689AB336
:1021E00001EBC10303EB0113B0FBF3F343F48043B2
:1021F0001B0530D04AB301EBC10202EB0111B0FB69
:10220000F1F040F4804040F400402168C861D4E916
:102210000701084321680860D4E9031008432168D6
:102220008860D4E9050108432168C8602068016816
:1022300041F0010101602564202084F83D00256300
:1022400084F83E50002070BD00E006E001EB410341
:10225000B0FBF3F3CCE70120D7E701EB4101B0FB82
:10226000F1F0D0E740420F00A08601002DE9FF4FBA
:1022700083B00446DDE911988A469346109FFFF724
:102280002BFF054694F83D00202803D0022007B01C
:10229000BDE8F08F192301229B492046009501F0EB
:1022A00069FA08B10220F2E794F83C00012807D04F
:1022B000012084F83C0020680168C90702D005E0CD
:1022C0000220E4E7016841F0010101602068016833
:1022D00021F400610160222084F83D00402084F850
:1022E0003E00002626646762A4F82A908748E062D0
:1022F000608D2085CDE900855A4651462046069BD3
:1023000001F00CF950B1206C042803D084F83C6033
:102310000320BCE784F83C600120B8E7208D48B179
:10232000012810D002281CD02068416980690290E1
:10233000774FDDE02068416981690291016841F4CD
:1023400000710160F4E72068016821F48061016098
:102350002068416981690291016841F4007101605E
:10236000E6E72068016821F4806101602068016867
:1023700041F4006101602068416980690290D7E7FB
:1023800003287DD801280BD0022823D04346002201
:1023900039462046009501F0EDF9E8B3032076E7D1
:1023A0002A464146204601F069FA30B1206C2028C7
:1023B00001D001206BE7032069E720680169606AAA
:1023C000421C62620170208D401E2085608D401E7F
:1023D00060858DE04346002239462046009501F095
:1023E000C9F908B1032052E72068016841F400717F
:1023F000016020680169606A421C62620170208D80
:10240000401E2085608D401E608520680169606ADD
:10241000421C6262017000E006E0208D401E2085B3
:10242000608D401E608563E02068016821F4806152
:10243000016020680169606A421C62620170208D3F
:10244000401E2085608D401E60854346002239462F
:102450002046009501F08EF908B1032017E72068A7
:10246000016841F40071016020680169606A421CE2
:1024700062620170208D401E2085608D401E00E04C
:102480000DE0608520680169606A421C626201702B
:10249000208D401E2085608D401E608528E02A46E4
:1024A0004146204601F0EAF930B1206C202801D0E5
:1024B0000120ECE60320EAE620680169606A421C1C
:1024C00062620170208D401E2085608D401E6085F7
:1024D00020684169C94349070AD40169606A421CFE
:1024E00062620170208D401E2085608D401E6085D7
:1024F000208D00287FF444AF20203C346070A6700B
:1025000026700020C3E60000020010000000FFFF5C
:10251000040001002DE9FF4F83B00446DDE9108976
:102520008A469346129FFFF7D7FD054694F83D0073
:10253000202803D0022007B0BDE8F08F1923012224
:102540004A492046009501F015F908B10220F2E74A
:1025500094F83C00012807D0012084F83C00206852
:102560000168C90702D005E00220E4E7016841F0F4
:10257000010101602068016821F4006101602120EF
:1025800084F83D00402084F83E0000262664C4F80C
:102590002480A4F82A903648E062608D2085CDE939
:1025A00000755A4651462046069B01F059F8D0B3B3
:1025B000206C042803D084F83C600320BBE784F837
:1025C0003C600120B7E72A463946204601F087F9EA
:1025D00058B1206C042801D00320ACE720680168C2
:1025E00041F4007101600120A5E7606A411C61624D
:1025F000216800780861208D401E80B22085618DA1
:10260000491E618523685969C94349070BD450B1F4
:10261000606A411C616200781861208D401E20852F
:10262000608D401E6085208D0028CCD12A46394619
:10263000204601F079F858B1206C042801D003201D
:1026400079E72068016841F400710160012072E7B8
:102650001F3454F81F0C016841F400710160202000
:10266000A077E6776677002065E70000020010009B
:102670000000FFFF704770470248816802781144EC
:10268000816070470400002070B504460D4D4FF482
:102690007A712878B1FBF0F00B490968B1FBF0F0D2
:1026A00000F01AFE08B1012070BD102C07D20022E4
:1026B0002146501E00F0DCF86C60002070BD012047
:1026C00070BD000004000020000000202DE9F04152
:1026D00004460F46154694F8A00001281ED0012696
:1026E00084F8A060022084F8A10005EB850000EBCF
:1026F000C50004EB8000383034223946FDF734FE43
:102700002A463946204602F0AFF82068466284F82F
:10271000A160002084F8A000BDE8F0810220FBE762
:1027200070B50446002C04D094F8A100002510B127
:1027300006E0012070BD84F8A050204600F06AF841
:10274000022084F8A1002068816921F07041816134
:10275000D4E901100143D4E9030210430143206886
:102760008269114381612068826829490A40826038
:10277000A08A020420688368A669334313438360F8
:102780002068C2680A40C260A08B02042068C36847
:10279000266A33431343C360206802690A4002611A
:1027A000A08C020420680369A66A334313430361C3
:1027B000206842690A404261A08D01042068426994
:1027C000236B1A430A43426194F83500020294F8DD
:1027D000360001042068C36A03F07F43C3622068A7
:1027E000C36A94F83460114333430B43C3622068D7
:1027F000416B41F0060141632068816941F00101AC
:102800008161C4F8A450012084F8A100002070BDAB
:1028100000F800F0704770B50446084694F8A01020
:10282000012918D0012584F8A050022184F8A110B4
:1028300002EB820101EBC20104EB810138314861F6
:10284000204602F011F82068456284F8A15000206B
:1028500084F8A00070BD022070BD00F01F020121AD
:1028600091404009800000F1E020C0F8001170475D
:10287000F0B40D460D4B1B68C3F30223C3F10704EC
:10288000042C00D90424191D072901D2002300E0DB
:10289000DB1E012606FA04F1491E294099409E409C
:1028A000761E16403143F0BC02F08FB80CED00E00C
:1028B0002DE9F8431848016841F080510160006833
:1028C00000F080500090DFF854800127C8F8407075
:1028D000FFF702FC05464FF47A76114C07E0FFF74C
:1028E000FBFB401BB04202D90320BDE8F8836068BF
:1028F000C003F4D5C8F84470FFF7EEFB054606E0C8
:10290000FFF7EAFB401BB04201D90320EDE7606806
:102910008003F5D50020E8E74038024000000E4271
:10292000007000402DE9F84F0446DFF81CA2206833
:10293000DFF81892864DC1074FF001084FF00007ED
:1029400001D1800741D5CAF86870FFF7C5FB06467C
:1029500007E0FFF7C1FB801B022802D90320BDE876
:10296000F88F28680001F4D420787A49C00705D090
:102970006068227A800140EA02700860207880074F
:1029800013D50868C0F302706268237B920142EAA3
:10299000036242EA00700860D9F80000E16920F0A3
:1029A0001F00491E0843C9F80000CAF86880FFF7F5
:1029B00093FB064606E0FFF78FFB801B022801D938
:1029C0000320CCE728680001F5D52068410701D431
:1029D000000750D5CAF87070FFF77EFB064606E088
:1029E000FFF77AFB801B022801D90320B7E728688C
:1029F000C0438000F4D520785749400714D50868B3
:102A0000C0F302702269237D920142EA036242EA26
:102A100000700860D9F8000020F4F852206A401EC7
:102A200042EA0020C9F800002078000712D50868A3
:102A3000C0F303602269920142EA0060227E40EA0C
:102A400002700860D9F80000616A20F44030084341
:102A5000C9F80000CAF87080FFF73EFB064606E0A2
:102A6000FFF73AFB801B022801D9032077E728688B
:102A7000C0438000F4D42078800653D534484030D9
:102A8000016841F080510160006800F080500090C2
:102A9000324D286840F480702860FFF71DFB064621
:102AA00006E0FFF719FB801B022801D9032056E737
:102AB0002868C005F5D5274D143D286800F44070FE
:102AC000F8B1218D01F4407181421AD0286820F4B8
:102AD00040702349C1F800800F6028602868C00753
:102AE0000FD0FFF7F9FA064641F2883706E0FFF704
:102AF000F3FA801BB84201D9032030E72868800729
:102B0000F5D5A06A1249C0F301220831032A12D078
:102B1000086820F4F81008602868218DC1F30B01C3
:102B2000084328602078C00603D50E4994F82C008D
:102B30000860002013E70A680B4B22F4F8121840D3
:102B400002430A60E8E70000000047428C38024078
:102B5000003802408438024088380240007000404B
:102B6000400E4742E0114742FFFCFF0F2DE9F047BE
:102B700004460D46002C13D0DFF82491D9F800004C
:102B8000EFB200F00F00A8420CD289F80070D9F81B
:102B9000000000F00F00A84204D00120BDE8F0873B
:102BA0000120FBE720683F4E810712D5400703D57F
:102BB000306840F4E05030602078000703D530687A
:102BC00040F4604030603068A16820F0F0000843B5
:102BD00030602078C00731D0324960680839012858
:102BE00008D002280BD0032809D0096889070BD424
:102BF0000120D3E70968890306D40120CEE70968DC
:102C0000890101D40120C9E7316821F003010143A2
:102C10003160FFF761FA804641F2883A07E0FFF73A
:102C20005BFAA0EB0800504501D90320B6E73068F5
:102C3000616800F00C00B0EB810FF0D1D9F8000012
:102C400000F00F00A84209D989F80070D9F80000F7
:102C500000F00F00A84201D001209FE72078400734
:102C600005D53068E16820F4E050084330602078F2
:102C7000000706D53068216920F4604040EAC100B1
:102C8000306000F03BF83168074AC1F30311515C32
:102C9000C840064908600F20FFF7F6FC00207DE7DA
:102CA000003C0240083802400453010800000020A4
:102CB00001480068704700000000002000B5FFF7E1
:102CC000F7FF04490968044AC1F38221515CC840F6
:102CD00000BD0000083802401453010800B5FFF79A
:102CE000E7FF04490968044AC1F34231515CC84016
:102CF00000BD0000083802401453010810B5174801
:102D0000006810F00C01164816D0164B042912D09A
:102D1000082911D1114C241F216801F03F022168BC
:102D200049020AD52068C0F38810A0FB03010023E4
:102D3000FDF758FA09E0184610BD21680023C1F3D9
:102D40008811A1FB0001FDF74DFA2168C1F3014193
:102D5000491C4900B0FBF1F010BD000008380240EA
:102D60000024F40040787D012DE9F84F0446002C42
:102D700010D02078DC4DC00757D0DB480830016800
:102D8000C1F3810101290DD00068C0F38100022840
:102D900003D00EE00120BDE8F88FD348001D006885
:102DA000400206D5286880033FD5606870BB0120CB
:102DB000F1E76068B0F5803F10D0B0F5A02F12D0D9
:102DC000286820F480302860286820F4802028605B
:102DD0006068E0B1FFF780F9064614E0286840F427
:102DE00080302860F4E7286840F480202860286854
:102DF00040F480302860EBE7FFF76EF9801B642811
:102E000001D90320C7E728688003F5D50DE0FFF757
:102E100063F9064606E0FFF75FF9801B642801D9D5
:102E20000320B8E728688003F5D42078AF4F8007E7
:102E30004FF0000849D5AC480830016811F00C0F7C
:102E400009D00068C0F38100022814D1A648001DF3
:102E5000006840020FD42868800704D5E068012884
:102E600001D0012097E72868216920F0F80040EAA6
:102E7000C100286029E0E068B8B101203860FFF7A0
:102E80002BF9064606E0FFF727F9801B022801D937
:102E9000032080E728688007F5D52868216920F09D
:102EA000F80040EAC10028600FE0C7F80080FFF793
:102EB00013F9064606E0FFF70FF9801B022801D937
:102EC000032068E728688007F5D42078000729D513
:102ED000DFF814928648616909F1740989B101210A
:102EE0000160FFF7F9F8064606E0FFF7F5F8801BEA
:102EF000022801D903204EE7D9F800008007F4D555
:102F000010E0C0F80080FFF7E7F8064606E0FFF79C
:102F1000E3F8801B022801D903203CE7D9F8000020
:102F20008007F4D42078400772D50026DFF8B8A1D6
:102F30000AF1400ADAF80000C0000BD4DAF8000009
:102F400040F08050CAF80000DAF8000000F080502D
:102F500000900126DFF89CB1DBF80000C00515D415
:102F6000DBF8000040F48070CBF80000FFF7B4F805
:102F7000814607E0FFF7B0F8A0EB0900022801D96D
:102F8000032008E7DBF80000C005F3D5DFF858B1EF
:102F9000A0680BF1700B012813D0052818D0DBF8BE
:102FA000000020F00100CBF80000DBF8000020F06A
:102FB0000400CBF80000A06830B3FFF78DF881461D
:102FC0001DE0DBF8000040F00100CBF80000F2E764
:102FD000DBF8000040F00400CBF80000DBF8000054
:102FE00040F00100CBF80000E5E7FFF775F8A0EB33
:102FF000090141F28830814201D90320CBE6DBF898
:1030000000008007F1D512E0FFF766F881460AE07C
:1030100015E0FFF761F8A0EB090141F28830814229
:1030200001D90320B7E6DBF800008007F1D4012EB8
:1030300005D1DAF8000020F08050CAF80000A0693D
:10304000C0B3294908310968C1F38101022949D077
:10305000022805D0C7F86080FFF73EF804463CE040
:10306000C7F86080FFF738F8064606E0FFF734F847
:10307000801B022801D903208DE628688001F5D441
:10308000D4E907010843616AA26A4FF0FF3389015E
:1030900003EB520241EA0241084394F82C1040EA43
:1030A00001611148001D016001203866FFF714F826
:1030B000044607E014E0FFF70FF8001B022801D9CF
:1030C000032068E628688001F5D509E0FFF704F8D9
:1030D000001B022801D903205DE628688001F5D491
:1030E000002058E6012056E6003802400000474222
:1030F000800E47420070004070B504460D46002C1B
:1031000003D094F82C0010B107E0012070BD00201E
:1031100084F82D00204600F011F8022084F82C00DD
:10312000211D2068FDF756FCD4E900022946FDF771
:10313000A3FC012084F82C00002070BD704710B55E
:10314000044694F82C0002280AD0022084F82C00AF
:103150002068FDF768FC012084F82C00002010BDD9
:10316000022010BD70B504460D4694F82C000228CC
:103170000ED0022084F82C0029462068FDF759FC67
:103180002868022806D0012084F82C00002070BD99
:10319000022070BD052084F82C00F7E770B50446C6
:1031A000002C06D04FF4005694F85100002510B1C1
:1031B00006E0012070BD84F85050204600F036F83B
:1031C000022084F851002068016821F0400101606C
:1031D000D4E901010843D4E90312114308436169AA
:1031E0000843218B01F400710843E1690843216A17
:1031F0000843A16A084321680860A069042101EA24
:103200001040616A084321684860A06AB04202D158
:103210002168E06A08612068C16921F40061C16128
:103220006565012084F85100002070BD70B586B03E
:103230002748016841F020010160016801F0200188
:103240000091016841F020010160016801F0200156
:103250000091016841F020010160016801F0200146
:103260000091016841F020010160006800F0200039
:10327000009017481430016841F480110160006823
:1032800000F480100090802001900220029001251F
:1032900003950490052405940E4E01A93046FEF7CF
:1032A00023FE29020191059401A93046FEF71CFE78
:1032B00069020191059401A93046FEF715FE4020F0
:1032C0000190029501A93046FEF70EFE06B070BDD2
:1032D000303802400014024010B5401EB0F1807F2B
:1032E00001D3012010BD4FF0E02460610F21601771
:1032F00001F06BFB0020A06107202061002010BDC1
:1033000070B50446002C04D094F83900002510B1A3
:1033100006E0012070BD84F83850204600F022F805
:10332000242084F839002068C16821F40051C1606C
:10333000204602F0B3FB2068016921F4904101614D
:103340002068416921F02A0141612068C16841F487
:103350000051C160E563202084F8390084F83A0008
:10336000002070BD70472DE9F84304460D46914694
:103370001E4694F83900202802D00220BDE8F883C8
:10338000B5B1B9F1000F13D094F83800012811D06D
:10339000012084F838000027E763212084F83900F1
:1033A000FEF79AFE8046A4F82490A4F826902DE01B
:1033B0000120E3E70220E1E7E08C401EE084A06802
:1033C000B0F5805F09D04346002280212046009658
:1033D00002F0EEFCB0B10320D0E74346002280218A
:1033E0002046009602F0E4FC08B10320C6E72888D6
:1033F0002168C0F308004860206908B16D1C05E031
:10340000AD1C03E0216815F8010B4860E08C002832
:10341000D2D14346002240212046009602F0C8FC4B
:1034200008B10320AAE720203834607027700020FC
:10343000A4E7FEE730B587B000242948016841F4CD
:1034400000110160006800F4001001902448103859
:10345000016841F002010160016801F0020101917F
:10346000016841F002010160006800F00200019073
:103470004020029012200390032005900494042021
:103480000690184D02A92846FEF72EFD80210291D4
:1034900002A92846FEF728FD1348FEF75DFE002826
:1034A0001CD10F482038016841F400110160016807
:1034B00021F4001101600C480C49016009140161FC
:1034C0000B49416044618460C4610462C4608461EA
:1034D000FEF746FE00210448FEF704FE07B030BDAB
:1034E0004038024000040240E81900200054004027
:1034F000801A060001684A69D24352050CD46FF461
:1035000080624A6104213030016100210160202283
:103510004273017301207047002070472DE9F84F76
:103520000446DDE90AB60F4690461D46206801684C
:1035300041F4806101602068016841F4807101609C
:103540004FF001195B46002249462046009600F0E4
:1035500011F910B10320BDE8F88F216807F0FE00D3
:103560000861DFF8F8A033465A465146204600F07D
:103570003BF930B1206C042801D00320EBE7012097
:10358000E9E7206841698069009032465946204643
:1035900000F0A5F958B1206C042801D00320DAE727
:1035A0002068016841F4007101600120D3E72846DA
:1035B00008F0FF0501280ED021684FEA18200861A5
:1035C00032465946204600F08AF970B1206C042832
:1035D00004D00320BFE72068056108E02068016887
:1035E00041F4007101600120B5E7206805613246B1
:1035F0005946204600F073F958B1206C042801D0D8
:103600000320A8E72068016841F4007101600120EF
:10361000A1E72068016841F4807101605B460022E7
:1036200049462046009600F0A5F808B1032092E72D
:103630002168F8B240F00100086133465A4651460D
:10364000204600F0D1F830B1206C042801D00320CE
:1036500081E701207FE700207DE7000002000100F4
:103660002DE9F8430446DDE908970D4616469846CD
:103670002068016841F4807101604B4600224FF0E0
:1036800001112046009700F075F810B10320BDE845
:10369000F883216805F0FE0008613B464A4621494F
:1036A000204600F0A1F830B1206C042801D003209E
:1036B000EDE70120EBE720684169806900903A4618
:1036C0004946204600F00BF958B1206C042801D07F
:1036D0000320DCE72068016841F4007101600120EB
:1036E000D5E7F5B2B8F1010F0DD02168300A0861B5
:1036F0003A464946204600F0F2F870B1206C0428A2
:1037000004D00320C3E72068056108E02068016851
:1037100041F4007101600120B9E7206805610020D3
:10372000B5E700000200010070B504460D461646DC
:1037300019E02046FFF7DEFE08B1012070BD681CCD
:1037400011D025B1FEF7C8FC801BA8420BD930343C
:10375000206940F02000206100202060202161735A
:103760002073032070BD20684069C0434007E0D447
:10377000002070BD2DE9F0470546DDF820A00F467A
:1037800091461E46C7F3074812E0701C10D02EB1B8
:10379000FEF7A2FCA0EB0A00B04209D9002045F8D0
:1037A000300F20216973A87328730320BDE8F087C8
:1037B000B8F1010F0BD02868806927EA00000004E7
:1037C000000C0FD000244C45DFD00020EEE7286825
:1037D000406927EA00000004000C01D00024F2E751
:1037E0000124F0E70124EEE72DE9F04704460E46F8
:1037F000154698464FF000094FF0200AC6F30747D8
:1038000029E020684069C043400513D4206801685E
:1038100041F40071016021686FF480604861042008
:103820002064C4F8309084F83DA084F83C900120D6
:10383000BDE8F087681C0ED02DB1FEF74DFCA0EB63
:103840000800A84207D9C4F8309084F83DA084F855
:103850003C900320ECE7012F08D02068806926EA1D
:1038600000000004000CCCD10020E1E72068406992
:1038700026EA00000004000CF6D0C2E72DE9F04172
:1038800004460D46164600274FF0200820E0406908
:10389000C043C0060CD421686FF010004861276453
:1038A000276384F83D8084F83C700120BDE8F081F6
:1038B00025B1FEF711FC801BA84209D9206C40F00D
:1038C0002000206484F83D8084F83C700320EDE7FC
:1038D00020684169C9434906D9D40020E6E770B59C
:1038E00004460D46164619E02046FFF703FE08B1D0
:1038F000012070BD681C11D025B1FEF7EDFB801BC7
:10390000A8420BD93034206940F02000206100200B
:103910002060202161732073032070BD20684069FE
:10392000C0430006E0D4002070BD000010B503487D
:10393000FEF7F9FBBDE81040FFF77CBDE819002059
:103940001CB5044600F016FD034600F003FD0246D8
:103950000020CDE900040648064C406800EB8001D9
:1039600001EBC00104EB8101C96D00F029FF1CBD12
:1039700024000020E81800202DE9F0410746134EEE
:10398000134C706800EB400154F8215004EB8100A7
:10399000406844F8210000F0DDFC82B2706800EB62
:1039A000400004EB80008068C38803FB07F081B20D
:1039B000002000F059FA706800EB400044F82050F5
:1039C0002846BDE8F04100F0A9BE00002400002018
:1039D000D01900202DE9F04F894693B0804611465A
:1039E00000256846FDF780F81820129018264FF041
:1039F000000ADFF89CB044E0F01DC108684601FBF6
:103A0000050001290AD002290AD001784278090468
:103A1000807841EA0227074300242BE00778FBE780
:103A20004178007841EA0027F6E7301B00EB0A01F5
:103A3000491E0120884038420DD0DBF8040000EB1D
:103A40004001144850F8212008EB040080B2494698
:103A500000F004F90DE0DBF8040000EB40010D4834
:103A600000EB81004946426808EB040080B200F098
:103A7000F5F8641CB442D8D309F101091FFA89F999
:103A80006D1C12988542B7D313B0BDE8F08F0000CB
:103A900024000020D019002030B40A4B5B6803EBEF
:103AA0004304094B03EB84039B68DD881C689B88F7
:103AB000DB1DDB08203A534305FB034230BCFCF717
:103AC00001BF000024000020D019002010B50948D3
:103AD0000068816941F001018161074C01221021D8
:103AE0002046FEF7F1FA20460122BDE81040802171
:103AF000FEF7EABAE8180020000C02402DE9F04772
:103B000006460C4600251F4FDFF87C804FF44879AD
:103B100025E07E2813D800F00FFCC088227870437F
:103B200081B22846FFF7B8FF786800EB400008EB49
:103B3000800080688088284485B2641C0FE020885B
:103B4000010201EB102082B200F0F6FBC088704346
:103B500081B22846FFF73EFF1835ADB2A41C4D4593
:103B60000DD2207800280AD0796801EB410108EBDA
:103B70008101896889884A1992B28A42C9D2BDE80E
:103B8000F087000024000020D01900202DE9FC411E
:103B900004460D462F4E304F706800EB800101EB5C
:103BA000C00007EB8000836C002B24D0012B31D0A8
:103BB000022B3FD0042B3DD0072B3BD000F0CAFB9B
:103BC00000FB0541706800EB800303EBC00007EBCE
:103BD0008000C06D00EB410170681F4C00EB40039A
:103BE000E83454F823300024CDE90043012300F0E9
:103BF000E7FDBDE8FC8100F0ADFB00FB054170680E
:103C000000EB800303EBC00007EB8000C06D00EB0E
:103C10008101E1E700F09EFB00FB054000EB400165
:103C2000706800EB800303EBC00007EB8000C06D01
:103C30000144D1E700F08EFB00FB0541706800EB0A
:103C4000800303EBC00007EB8000C06D00EB410177
:103C5000C2E7000024000020E8180020F0B5034669
:103C60000C463A4E3A4D706800EB800101EBC00003
:103C700005EB8000806C002817D0012824D092B278
:103C8000022853D0042851D007284FD000F062FBFF
:103C900004FB0031706800EB800303EBC00005EB10
:103CA0008000C06D20F81120F0BD00F053FB04FB34
:103CB0000031706800EB800303EBC00005EB80006F
:103CC000C06D40F82120F0BD00F044FB04FB003043
:103CD00000EB40017068891C00EB800707EBC00017
:103CE00005EB8000170CC06D475400F033FB04FB5C
:103CF000003000EB40017068491C00EB800707EBC7
:103D0000C00005EB8000170AC06D475400F022FB8D
:103D100004FB003000EB4001706800EB800303EB14
:103D2000C00005EB8000C06D4254F0BD00F012FBF6
:103D300004FB0031706800EB800303EBC00005EB6F
:103D40008000C06D20F81120F0BD0000240000208C
:103D5000E81800202DE9F04106460D4617461C469E
:103D60003A4629463046FFF711FF281981B23A46F4
:103D70003046FFF70BFF22462946304600F008F890
:103D8000F01922462946BDE8F04180B2AFF3008029
:103D90002DE9FC4105460E46314B324F586800EB89
:103DA000800101EBC00007EB8000846C002C28D060
:103DB000012C35D0022C43D0042C41D0072C3FD00D
:103DC00000F0C8FA00FB0651586800EB800404EBD1
:103DD000C00007EB8000C06D00EB410400F0BAFAB0
:103DE000411E58681F4D00EB4003E83555F823305D
:103DF000CDE9001313460122214600F0E1FCBDE8A5
:103E0000FC8100F0A7FA00FB0651586800EB800423
:103E100004EBC00007EB8000C06D00EB8104DDE720
:103E200000F098FA00FB065000EB4001586800EBE8
:103E3000800404EBC00007EB8000C06D0C18CDE7D8
:103E400000F088FA00FB0651586800EB800404EB90
:103E5000C00007EB8000C06D00EB4104BEE700002E
:103E600024000020E81800202DE9FC4705460E46F6
:103E70009046DFF8E090384FD9F8040000EB40009E
:103E800057F8200000F04AFCD9F80400A7F1E80236
:103E900000EB800101EBC00002EB8000846C44B3B6
:103EA000012C36D0022C45D0042C43D0072C41D015
:103EB00000F050FA00FB0651D9F8040000EB800432
:103EC00004EBC00002EB8000C06D00EB410400F089
:103ED00041FAA0EB0801D9F8040000EB400257F8C2
:103EE0002220CDE900124246214600F069FCBDE8DF
:103EF000FC8700F02FFA00FB0651D9F8040000EB14
:103F0000800404EBC00002EB8000C06D00EB810474
:103F1000DDE700F01FFA00FB065000EB4001D9F886
:103F2000040000EB800404EBC00002EB8000C06DD5
:103F30000C18CCE700F00EFA00FB0651D9F804008B
:103F400000EB800404EBC00002EB8000C06D00EBCE
:103F50004104BCE724000020D01900202DE9F04FD7
:103F600087B0EB48016841F080010160016801F011
:103F700080010191016841F080010160016801F058
:103F800080010191016841F080010160016801F048
:103F900080010191016841F002010160016801F0B6
:103FA00002010191016841F001010160016801F025
:103FB00001010191016841F001010160016801F016
:103FC00001010191016841F002010160016801F005
:103FD00002010191016841F040010160016801F0B6
:103FE00040010191016841F010010160016801F098
:103FF00010010191016841F010010160016801F0B8
:1040000010010191016841F080010160016801F037
:1040100080010191016841F040010160016801F0F7
:1040200040010191016841F040010160016801F027
:1040300040010191016841F480710160016801F45F
:1040400080710191016841F004010160016801F093
:1040500004010191016841F480710160016801F47B
:1040600080710191016841F010010160016801F067
:1040700010010191016841F040010160016801F007
:1040800040010191016841F008010160016801F0FF
:1040900008010191016841F008010160016801F027
:1040A00008010191016841F480710160016801F427
:1040B00080710191016841F001010160016801F026
:1040C00001010191016841F002010160016801F004
:1040D00002010191016841F002010160016801F0F3
:1040E00002010191016841F040010160016801F0A5
:1040F00040010191016841F480710160016801F49F
:1041000080710191016841F480710160016801F4DE
:1041100080710191016841F020010160016801F0A6
:1041200020010191016841F008010160016801F07E
:1041300008010191016841F008010160006800F088
:1041400008000190022505950395012004900420A4
:1041500002900E24069402A96E48FDF7C5FE0820C1
:104160000290069402A96B48FDF7BEFEE80102909A
:10417000069402A96748FDF7B7FE012002904FF0B0
:104180000908CDF8188002A96348FDF7ADFE4FF489
:10419000006ACDF808A0069402A96048FDF7A4FEC5
:1041A0004FF4805BCDF808B0069402A95B48FDF798
:1041B0009BFE0295CDF8188002A95748FDF794FEA2
:1041C00040260296069402A95548FDF78DFE202050
:1041D0000290069402A95348FDF786FE02960694C3
:1041E00002A95048FDF780FE28030290069402A918
:1041F0004848FDF779FE6F020297CDF8188002A9B2
:104200004748FDF771FEA8030290069402A94148B1
:10421000FDF76AFE01200290069402A94248FDF7CC
:1042200063FE4FF08008CDF80880069402A93F484D
:10423000FDF75AFE04200290069402A93A48FDF7C1
:1042400053FE4FF01009CDF80890069402A93548A6
:10425000FDF74AFECDF808B0069402A93048FDF7F4
:1042600043FE02960694DFF8C8B002A95846FDF74F
:104270003BFECDF808A0069402A92948FDF734FEBC
:10428000CDF80890069402A92748FDF72DFE0820D6
:104290000290069402A92148FDF726FEE80102904B
:1042A000069402A91C48FDF71FFE2E0202960694F2
:1042B00002A91948FDF718FECDF80880069402A956
:1042C0001748FDF711FE0297069402A91648FDF75C
:1042D0000BFE0296069402A91348FDF705FE02970D
:1042E000069402A91348FDF7FFFDCDF80890059547
:1042F00001200390049002A95846FDF7F5FDCDF882
:10430000088002A95846FDF7EFFD07B0BDE8F08F21
:1043100030380240001C024000040240000002400D
:104320000018024000100240002002400008024035
:10433000000C02400014024004480549406800EBAC
:10434000400001EB800080687047000024000020DE
:10435000D01900200548406800EB800101EBC00047
:10436000034901EB8000006E70470000240000202C
:10437000E81800200548406800EB800101EBC00010
:10438000034901EB8000406E7047000024000020CC
:10439000E818002030B58DB000252848016841F0AC
:1043A00080610160006800F080600090234814384C
:1043B000016841F400010160006800F40000009011
:1043C000FFF7CCFD01F0BEF91E4C1D482060656171
:1043D000A5612E20E0611720206240F24E3060621D
:1043E00040F2F710A0624FF45970E06240F20D20E5
:1043F000206308200190C0200590052007904FF40D
:1044000080300A9001A8FEF78DFA4FF448702066BC
:104410004FF4F070606684F8365084F8355084F8B4
:1044200034506560A560E56025612046FEF778F9A7
:10443000054800F065F90DB030BD00004438024079
:1044400000680140E81800202C00002030B58DB035
:1044500004460B46154600220092FFF77BFF0190B1
:104460000292FFF787FF039004950993FF200590C0
:1044700006928DF830208DF831208DF832204FF4DF
:10448000C060079007200890FFF764FF0A90FFF7CD
:1044900071FF0B90224669460C48FEF717F90B4A4C
:1044A00004EB4400E83202EB80014FF0FF334B6035
:1044B000074B8B604FF07F4142F8201003480068A3
:1044C000416A41F0010141620DB030BDE8180020A1
:1044D0002C00002070B5012000F0F4F86FF07F4050
:1044E00000F01CF90F4C4FF482754FF487760323CC
:1044F0002A4621883046FFF7B7FC2188C91C89B2BB
:104500002180B1F5C07F01D95F202080064800F0EE
:1045100005F92A4621883046BDE870400323FFF79D
:10452000A3BC0000F01400200000FFFF70B50120C4
:1045300000F0C8F86FF07F45284600F0EFF8FFF76D
:1045400019FFA0F5A070C0F34F04FFF703FF4FF46D
:10455000A076A0F5A070C0F34F0033463246214646
:10456000FFF782FC2946280400F0C0F8FFF702FF9D
:10457000A0F5A070C0F34F04FFF7ECFEA0F5A0700B
:10458000C0F34F00334632462146FFF7E3FB29468E
:104590004FF0FF2000F0AAF8FFF7ECFEA0F5A070A6
:1045A000C0F34F04FFF7D6FEA0F5A070C0F34F0094
:1045B00003231E222146FFF757FCFFF7DBFEA0F581
:1045C000A070C0F34F04FFF7C5FEA0F5A070C0F3C4
:1045D0004F001E2303222146FFF746FCFFF7CAFEC9
:1045E000A0F5A070C0F34F05FFF7B4FE00F5A07072
:1045F0006FF01F0404EB500080B203231E222946F3
:10460000FFF732FCFFF7B6FEA0F5A070C0F34F062F
:10461000FFF7A0FE00F5A070251105EB500080B259
:104620001E2303223146FFF71FFCFFF7A3FE00F510
:10463000A07005EB500086B2FFF78CFEA0F5A070CD
:10464000C0F34F0003231E223146FFF70DFCFFF796
:1046500091FE00F5A07004EB500086B2FFF77AFEE1
:10466000A0F5A070C0F34F001E2303223146FFF7D0
:10467000FBFBFFF77FFE00F5A07005EB500086B254
:10468000FFF768FE00F5A07004EB500080B2032332
:1046900021223146FFF7E8FBFFF76CFE00F5A07022
:1046A00004EB500084B2FFF755FE00F5A07005EB57
:1046B00050002146BDE870401E2380B20322FFF760
:1046C000D3BB00000149486070470000240000206F
:1046D0000449054A496801EB410102EB8101486048
:1046E0007047000024000020D019002000B50B46C0
:1046F00000F014F818465DF804EBFFF7E9BF00007E
:104700000449054A496801EB410102EB81018860D7
:104710007047000024000020D01900200349044AFB
:10472000496801EB410142F8210070472400002054
:10473000D019002002460148FEF76DB8E8180020A5
:10474000F0B587B01C48016841F080010160016844
:1047500001F080010191016841F080010160016870
:1047600001F080010191016841F080010160006861
:1047700000F0800001904FF48064029401200390C7
:104780000490032005900D4F02A93846FDF7ACFBBD
:104790006500029502A93846FDF7A6FBA600029621
:1047A00002A93846FDF7A0FB0448183004600560F4
:1047B000066007B0F0BD000030380240001C024027
:1047C0002DE9F8430546DDE908080E4617461C4664
:1047D000224A4FF4403151602149496801EB81037D
:1047E00003EBC103A2F1A80101EB8301896C02294B
:1047F00007D049B101290AD003290BD004290CD0D4
:104800000DE0022191600AE00021916007E00121A2
:10481000916004E00321916001E004219160D06087
:10482000104810600D48FCF741FB002814D12946C0
:104830000A48FCF7E7FA00280ED13B4632464146CB
:1048400006480094FCF7F8FB002805D1BDE8F843C2
:1048500064210248FCF759BBBDE8F8839019002099
:104860002400002000B00240F0B503688C88DD68A9
:10487000C5F30B452C442504882404EBC2141E59AF
:1048800006F470461E5103680F68DE68C6F30B46D7
:10489000761C3E442E431E5103688C89DD68C5F3A7
:1048A0000A052C4425048C2404EBC2141E5906F47A
:1048B00070461E5103688F68DE68C6F30A06761CD0
:1048C0003E442E431E519423046803EBC213E55863
:1048D00025F00705E55005680C69EC5091F831307A
:1048E0004FEA032C91F832301E040B7E1F069C23E6
:1048F000046803EBC213E5580025E55091F83040F9
:104900003E4344EA0C0434430668F4509823046898
:1049100003EBC213E65826F0FF06E65006684C6922
:10492000F450A023046803EBC213E65840F2077763
:10493000BE43E650D1E9074634430668F450AC2341
:10494000046803EBC213E658E55005684C6AEC5066
:104950000B69002B31D0012B31D0042B31D0022B2D
:104960002FD0032B2DD0072B2BD00123B02405688B
:1049700004EBC2142E5906F0E0262E51D1E9006551
:10498000AD1B5D430E8DED1C5E4345EA0643056895
:104990002B51B423046803EBC213E5586FF30A05E7
:1049A000E5500468C96AE1500068842101EBC21136
:1049B000425842F001024250F0BD0423D6E70323DF
:1049C000D4E70223D2E7FEE770470907090E002863
:1049D00006DA00F00F0000F1E02080F8141D7047A7
:1049E00000F1E02080F80014704710B500F0C8F81E
:1049F000BDE8104000F046B8F8B506460F46002561
:104A00001D4C206840F480002060206800F4800085
:104A100000901B4C194820604FF000706060A5604A
:104A2000E560C0132061800060614000A06140111A
:104A3000E06140022062042060620320A0624FF423
:104A40000000E0622563A4F14005AC63A563002289
:104A500005213920FDF70CFF3920FDF7FEFE204629
:104A6000FDF78AF901B03B4632462846BDE8F040E2
:104A70000021FCF70DB900003038024028640240E4
:104A80007C1A00202DE9F0414FF4967443F223067E
:104A90000121304600F0FEFA771E0821384600F06A
:104AA000F9FA304600F0C2FA0546641E601C22D0B6
:104AB0000A20FDF707FA002DF3D10121304600F05E
:104AC000E9FA0421384600F0E5FA41F2883430462C
:104AD00000F0ACFA0546641E601C14D00120FDF7FE
:104AE000F1F9002DF3D12246BDE8F04140F2531117
:104AF00009A001F0C7B92A46BDE8F04140F23F11D4
:104B00000FA001F0BFB92A46BDE8F0414FF4A771EC
:104B10000BA001F0B7B900003C3C2D43414D45527C
:104B2000412D44454255472D3E3E205B25645D693D
:104B30007465726174696F6E3D2025640A0A000015
:104B40003C3C2D43414D4552412D44454255472D56
:104B50003E3E205B25645D4F56353634305F436FF3
:104B60006E7374616E745F466F6375732074696DE4
:104B700065206F75742021212025780A0A00000025
:104B80002DE9F04164244FF4837139A001F07AF9E2
:104B90004FF440572021384600F07CFA40F65D750E
:104BA0002A464FF485713FA001F06CF92946484828
:104BB00000F05CFA002143F2220000F06BFA0021C1
:104BC00043F2230000F066FA002143F2240000F0D3
:104BD00061FA002143F2250000F05CFA002143F263
:104BE000260000F057FA002143F2270000F052FAA5
:104BF000002143F2280000F04DFA43F22906FF217C
:104C0000304600F047FA0021384600F043FAFF2111
:104C1000381D00F03FFA0021084600F03BFA002161
:104C2000084600F037FA0021084600F033FA002168
:104C3000084600F02FFA4FF49077304600F0F6F96E
:104C400005462A46394623A001F01CF90120FDF74C
:104C500039F9641E601C03D0702DEED1BDE8F081DF
:104C60002A46BDE8F04140F22511274801F00AB973
:104C70003C3C2D43414D4552412D44454255472D25
:104C80003E3E205B25645D4F56353634305F464FDF
:104C90004355535F4144353832305F496E69740A79
:104CA0000A0000003C3C2D43414D4552412D4445F6
:104CB0004255472D3E3E205B25645D546F74616C08
:104CC00020436F756E74203D2025640A0A000000A1
:104CD000920500203C3C2D43414D4552412D444519
:104CE0004255472D3E3E205B25645D7768656E200A
:104CF000696E69742061662C2073746174653D303F
:104D00007825780A0A000000389401082DE9F0435C
:104D100087B07748016841F040010160016801F007
:104D200040010191016841F002010160016801F058
:104D300002010191016841F480710160016801F490
:104D400080710191016841F001010160016801F089
:104D500001010191016841F001010160016801F068
:104D600001010191016841F080010160016801F0D9
:104D700080010191016841F080010160016801F04A
:104D800080010191016841F080010160016801F03A
:104D900080010191016841F080010160016801F02A
:104DA00080010191016841F080010160016801F01A
:104DB00080010191016841F008010160016801F082
:104DC00008010191016841F480710160016801F4FA
:104DD00080710191016841F480710160006800F404
:104DE00080700190202702970220039003200590F5
:104DF000012504950D240694DFF8F89002A9484691
:104E0000FDF772F81020029006943B4E02A930463E
:104E1000FDF76AF84FF04008CDF80880069402A923
:104E20003046FDF761F8680202900694334E02A9FD
:104E30003046FDF759F8A8020290069402A93046C0
:104E4000FDF752F8E8020290069402A93046FDF7F9
:104E50004BF828030290069402A93046FDF744F867
:104E6000A8030290069402A93046FDF73DF80826F3
:104E70000296069402A92248FDF736F8CDF808807C
:104E8000069402A94846FDF72FF880200290069468
:104E900002A94846FDF728F802960395194C02A985
:104EA0002046FDF721F802970395174D02A92846E1
:104EB000FDF71AF8002220212846FDF705F9012206
:104EC00008212046FDF700F9002208212046FDF7C1
:104ED000FBF80A20FCF7F6FF012220212846FDF707
:104EE000F3F83220FCF7EEFF07B0BDE8F0830000D6
:104EF000303802400020024000000240001C024006
:104F0000000C0240001802400004024008B50021D5
:104F10001248026842F001020260006800F00100DD
:104F2000009010480E4A0260416020228260802278
:104F3000C260016141618161FBF74AFE00220521E7
:104F40004E20FDF795FC4E20FDF787FCBDE808409C
:104F500005494FF05040FFF74FBD00003438024084
:104F6000000005503C1A002000EE0200F8B500F0E9
:104F700077F80024184E194F06EB840536F8240004
:104F8000A97800F087F80120FCF79CFF36F8240090
:104F900000F04CF827F814006B88834207D000908B
:104FA00036F8242040F2FD310DA000F06BFF641CA8
:104FB000D02CE1D308490320891E0870002401F297
:104FC000B24505EB8400817835F8240000F062F8E2
:104FD000641C2B2CF5D3F8BD36000020DC1A002011
:104FE0003C3C2D43414D4552412D44454255472DB2
:104FF0003E3E205B25645D73656E736F725F726504
:10500000675B307825785D3A25782D25780A0A0087
:1050100010B5044643F20A0000F008F8207043F28D
:105020000B0000F003F8607010BD00001FB50021F8
:105030000391012303ACCDE900434FF47A7102914F
:105040000246102378210548FDF710F908B1FEF754
:105050006DFC9DF80C0004B010BD0000E8190020A4
:10506000802143F2080000F015B800003EB54FF46F
:1050700000424FF47A738DE80B0010237821044826
:10508000FDF748FA04460CB1FEF750FC20463EBD41
:10509000E819002013B584B0012305ACCDE9004325
:1050A0004FF47A7102910246102378210448FDF7EB
:1050B00031FA04460CB1FEF739FC06B0204610BDAB
:1050C000E8190020704700002DE9FF5F0025002748
:1050D0000024002003906B48007800287DD0002039
:1050E000684908700FF0A6FA67490860012300229A
:1050F0001146654800680FF0E1FBA04631E04FF033
:10510000000929E008EB880009EB801B5F4A128840
:10511000A2F5A07000EBD07253105D4A1288A2F580
:10512000A07101EBD17208EB6202DFF860C1BCF83C
:1051300000C002FB0C324A44564B33F81220564B47
:1051400023F81B20194631F81B000DF07DFF534951
:1051500001F80B0009F10109B9F5A07FD2DB08F1D4
:105160000108B8F5A07FCADB0FF0FCF902904CA053
:105170000FF048F98046414602980FF03FFC0021AD
:1051800002980FF045FC4FF4A072114602980FF000
:1051900037FC454B4FF4C832404902980FF0F0FB02
:1051A0003948029900680FF037FC039003980028F3
:1051B00057D002980FF003FA80464EE0404610F0B8
:1051C00080F8019001980FF031F9814601980FF0B5
:1051D0002DF90090FBF7FAF800E04DE000F0FF0A2F
:1051E000404610F06AF88346404610F068F806B270
:1051F0002E4800EB442228466D1C02F800A05746BA
:1052000008E019F8012B294800EB442328466D1CBF
:105210001A547F1E002FF4DCC6F30722234800EB4C
:10522000442328466D1C1A54204800EB442328468A
:105230006D1C1E54374608E01BF8012B1B4800EB81
:10524000442328466D1C1A547F1E002FF4DC641C76
:105250000025404610F037F88046B8F1000FADD178
:1052600000BF02980FF08EF9074800680FF03CFA73
:1052700000200F49086000BF0398C0B204B0BDE829
:10528000F09F000000150020F8140020F414002006
:10529000F6140020000050D0000060D0000070D054
:1052A0005938303000000000154A01087C1C0020ED
:1052B000FC1400202DE9F04F87B0FE48016841F052
:1052C00020010160016801F020010191016841F0B5
:1052D00020010160016801F020010191016841F0A5
:1052E00020010160016801F020010191016841F095
:1052F00020010160016801F020010191016841F085
:1053000020010160016801F020010191016841F074
:1053100020010160016801F020010191016841F064
:1053200020010160016801F020010191016841F054
:1053300020010160016801F020010191016841F044
:1053400020010160016801F020010191016841F034
:1053500020010160016801F020010191016841F024
:1053600040010160016801F040010191016841F0D4
:1053700040010160016801F040010191016841F0C4
:1053800040010160016801F040010191016841F0B4
:1053900008010160016801F008010191016841F014
:1053A00008010160016801F008010191016841F004
:1053B00008010160016801F008010191016841F0F4
:1053C00008010160016801F008010191016841F0E4
:1053D00010010160016801F010010191016841F0C4
:1053E00010010160016801F010010191016841F0B4
:1053F00010010160016801F010010191016841F0A4
:1054000010010160016801F010010191016841F093
:1054100010010160016801F010010191016841F083
:1054200010010160016801F010010191016841F073
:1054300010010160016801F010010191016841F063
:1054400010010160016801F010010191016841F053
:1054500010010160016801F010010191016841F043
:1054600008010160016801F008010191016841F043
:1054700008010160016801F008010191016841F033
:1054800008010160016801F008010191016841F023
:1054900080010160016801F080010191016841F023
:1054A00040010160016801F040010191016841F093
:1054B00040010160016801F040010191016841F083
:1054C00004010160016801F004010191016841F0EB
:1054D00020010160016801F020010191016841F0A3
:1054E00040010160016801F040010191016841F053
:1054F00040010160016801F040010191016841F043
:1055000080010160016801F080010191016841F0B2
:1055100010010160016801F010010191016841F082
:1055200010010160006800F010000190022003905B
:1055300001200490022005900C200690012002908A
:1055400002A95D48FCF7D0FC0220029002A95A484B
:10555000FCF7CAFC0420029002A95748FCF7C4FCDF
:105560000820029002A95448FCF7BEFC10270297BD
:1055700002A95148FCF7B8FC4FF02008CDF808808C
:1055800002A94D48FCF7B0FC3802029002A94A4833
:10559000FCF7AAFC4FF40059CDF8089002A9464840
:1055A000FCF7A2FCBD02029502A94348FCF79CFC53
:1055B0006C00029402A94048FCF796FC012002907E
:1055C00002A93E48FCF790FC0220029002A93B4849
:1055D000FCF78AFC0420029002A93848FCF784FCFE
:1055E000029502A93648FCF77FFC029402A93448D0
:1055F000FCF77AFC0120029002A93148FCF774FC08
:105600000220029002A92E48FCF76EFC8020029036
:1056100002A92C48FCF768FCE611029602A9294869
:10562000FCF762FCA011029002A92648FCF75CFC82
:105630004FF4806ACDF808A002A92248FCF754FC78
:105640004FF4006BCDF808B002A91E48FCF74CFCE3
:10565000E010029002A91B48FCF746FCCDF8089028
:1056600002A91848FCF740FC029502A91548FCF76E
:105670003BFC029402A91348FCF736FC029602A9EF
:105680000F48FCF731FCA011029002A90C48FCF76E
:105690002BFCCDF808A002A90948FCF725FC402006
:1056A0000290094D02A92846FCF71EFC029702A9A8
:1056B00002480BE03038024000140240001802405B
:1056C000000C024000100240001C0240FCF70CFCE1
:1056D000CDF8088002A91748FCF706FC01200290CB
:1056E00002A91548FCF700FCCDF808B002A9134840
:1056F000FCF7FAFB029402A90E48FCF7F5FB0296B0
:1057000002A90C48FCF7F0FB8020029002A9284671
:10571000FCF7EAFB0220029002A90948FCF7E4FB2F
:105720000120029002A90648FCF7DEFB07B0BDE8A5
:10573000F08F0000001802400008024000140240F0
:105740000010024000B589B0FFF7B4FD00211848F1
:10575000026842F001020260006800F0010001905E
:105760001548144A02600122426082600822C26029
:1057700010220261402242614FF4C0728261C16115
:105780004FF4006202624162910081620220029045
:105790000721039104220492059106900790089036
:1057A00002A90548FDF7A8FC00F008F809B000BD03
:1057B00038380240400100A02C1800202DE9F047A5
:1057C000204C0125256008266660A5600027E7605B
:1057D0004FF6FF7921464A4601F11000FDF7C2FC61
:1057E000012000F031F8022020606660A560E760CB
:1057F00021464A4601F11000FDF7B4FC0320206069
:1058000066604FF00408C4F80880E76021464A4605
:1058100001F11000FDF7A6FC40F23120C4F8008031
:105820006660A560E06021464A4601F11000FDF780
:1058300099FC04F11000BDE8F04740F2AB21FDF700
:105840007EBC00001C18002001B581B005490198FC
:105850004843009002E00098401E00900098002805
:10586000F9D10CBDA08601002DE9F04104460F4698
:1058700015460F4E4FF480003060032000F03EF8D4
:10588000C7F3074000F03AF8C7F3072000F036F8F6
:10589000F8B200F033F804E0FF2000F02FF804F82D
:1058A000010B6D1EADB2F7D240203060BDE8F08133
:1058B0001814024010B5104C0E4820600020E06122
:1058C000A0600121616102212161A0620721E162E2
:1058D000E06020624FF40071A16160624FF4827059
:1058E00060602046FDF75AFC2068016841F04001E5
:1058F000016010BD005001406018002070B5144BCD
:105900004FF480561E60134D2A6808E019684C1E3B
:105910001C6004D2002000F01FF8C0B270BD916876
:10592000C9438907F2D4D0601E60296808E018686E
:10593000421E1A6004D2012000F00EF8C0B270BD01
:105940008868C043C007F2D1C868C0B270BD00000B
:10595000200000206018002010B5014602A000F0D1
:1059600091FA002010BD00003C3C2D464C415348AC
:105970002D4552524F522D3E3E2053504920B5C81E
:10598000B4FDB3ACCAB1216572726F72436F6465C6
:10599000203D2025640A00007047000010B5FCF788
:1059A0006BFE0020054A52F8201011B1491E42F842
:1059B0002010401CC0B20328F5D310BD6C15002088
:1059C00030B593B000251E48016841F08051016058
:1059D000006800F0805001901A48016841F440418D
:1059E0000160006800F44040019001200290000432
:1059F0000390022408948001099019200A904FF422
:105A0000B4700B900C9407200D9002A8FDF7ACF930
:105A100000B1FEE7FCF74CFF0F200E900F9410959D
:105A20004FF4A05011904FF48050129005210EA811
:105A3000FDF79CF8002800D0FEE713B030BD000051
:105A400040380240007000401048016841F4700185
:105A500001600F48016841F0010101600C4A00211A
:105A60000832116002680B4B1A400260031D0A4A9B
:105A70001A60026822F48022026005480C3001603E
:105A800002495806803908607047000088ED00E040
:105A900000380240FFFFF6FE103000242DE9F041EF
:105AA00004462068016921F44052E1681143016114
:105AB0002068C26849F20C618A432369A168E569DC
:105AC000194363692B4319431143C160206841693D
:105AD00021F44071A2690A434261E069B24AB349C4
